{
  "contractName": "CRVoting",
  "abi": [
    {
      "inputs": [],
      "stateMutability": "nonpayable",
      "type": "constructor"
    },
    {
      "inputs": [
        {
          "internalType": "address",
          "name": "",
          "type": "address"
        }
      ],
      "name": "students",
      "outputs": [
        {
          "internalType": "bool",
          "name": "",
          "type": "bool"
        }
      ],
      "stateMutability": "view",
      "type": "function",
      "constant": true
    },
    {
      "inputs": [],
      "name": "studentsInElectionCount",
      "outputs": [
        {
          "internalType": "uint256",
          "name": "",
          "type": "uint256"
        }
      ],
      "stateMutability": "view",
      "type": "function",
      "constant": true
    },
    {
      "inputs": [
        {
          "internalType": "uint256",
          "name": "",
          "type": "uint256"
        }
      ],
      "name": "studentsInElectionMapping",
      "outputs": [
        {
          "internalType": "uint256",
          "name": "id",
          "type": "uint256"
        },
        {
          "internalType": "string",
          "name": "name",
          "type": "string"
        },
        {
          "internalType": "uint32",
          "name": "erp",
          "type": "uint32"
        },
        {
          "internalType": "uint8",
          "name": "votes",
          "type": "uint8"
        }
      ],
      "stateMutability": "view",
      "type": "function",
      "constant": true
    },
    {
      "inputs": [],
      "name": "teacher",
      "outputs": [
        {
          "internalType": "address",
          "name": "",
          "type": "address"
        }
      ],
      "stateMutability": "view",
      "type": "function",
      "constant": true
    },
    {
      "inputs": [
        {
          "internalType": "address",
          "name": "_studentAddress",
          "type": "address"
        }
      ],
      "name": "registerStudent",
      "outputs": [],
      "stateMutability": "nonpayable",
      "type": "function"
    },
    {
      "inputs": [
        {
          "internalType": "string",
          "name": "name",
          "type": "string"
        },
        {
          "internalType": "uint32",
          "name": "erp",
          "type": "uint32"
        }
      ],
      "name": "applyForElection",
      "outputs": [],
      "stateMutability": "nonpayable",
      "type": "function"
    },
    {
      "inputs": [
        {
          "internalType": "uint256",
          "name": "id",
          "type": "uint256"
        }
      ],
      "name": "giveVote",
      "outputs": [],
      "stateMutability": "nonpayable",
      "type": "function"
    },
    {
      "inputs": [],
      "name": "declareWinner",
      "outputs": [
        {
          "internalType": "string",
          "name": "",
          "type": "string"
        }
      ],
      "stateMutability": "view",
      "type": "function",
      "constant": true
    }
  ],
  "bytecode": "0x6080604052600060015534801561001557600080fd5b50336000806101000a81548173ffffffffffffffffffffffffffffffffffffffff021916908373ffffffffffffffffffffffffffffffffffffffff160217905550611000806100656000396000f3fe608060405234801561001057600080fd5b50600436106100885760003560e01c8063b46bff891161005b578063b46bff8914610113578063c7573e8214610131578063d14cd0871461014d578063dcf0cdbf1461018057610088565b806314034bd21461008d5780636fd7dba6146100ab5780637f178f2e146100c7578063a6c807a9146100e3575b600080fd5b61009561019e565b6040516100a291906109c6565b60405180910390f35b6100c560048036038101906100c09190610b6d565b61038e565b005b6100e160048036038101906100dc9190610bff565b610549565b005b6100fd60048036038101906100f89190610c8a565b610682565b60405161010a9190610cd2565b60405180910390f35b61011b6106a2565b6040516101289190610cfc565b60405180910390f35b61014b60048036038101906101469190610c8a565b6106c6565b005b61016760048036038101906101629190610bff565b6107af565b6040516101779493929190610d51565b60405180910390f35b610188610884565b6040516101959190610d9d565b60405180910390f35b606060008054906101000a900473ffffffffffffffffffffffffffffffffffffffff1673ffffffffffffffffffffffffffffffffffffffff163373ffffffffffffffffffffffffffffffffffffffff161461022e576040517f08c379a000000000000000000000000000000000000000000000000000000000815260040161022590610e04565b60405180910390fd5b6000600360006001815260200190815260200160002060020160049054906101000a900460ff1690506000600190506000600290505b6001548160ff16116102e457600360008260ff16815260200190815260200160002060020160049054906101000a900460ff1660ff168360ff1610156102d157600360008260ff16815260200190815260200160002060020160049054906101000a900460ff1692508091505b80806102dc90610e53565b915050610264565b50600360008260ff168152602001908152602001600020600101805461030990610eac565b80601f016020809104026020016040519081016040528092919081815260200182805461033590610eac565b80156103825780601f1061035757610100808354040283529160200191610382565b820191906000526020600020905b81548152906001019060200180831161036557829003601f168201915b50505050509250505090565b60011515600260003373ffffffffffffffffffffffffffffffffffffffff1673ffffffffffffffffffffffffffffffffffffffff16815260200190815260200160002060009054906101000a900460ff16151514610421576040517f08c379a000000000000000000000000000000000000000000000000000000000815260040161041890610f2a565b60405180910390fd5b6001600081548092919061043490610f4a565b91905055506000600260003373ffffffffffffffffffffffffffffffffffffffff1673ffffffffffffffffffffffffffffffffffffffff16815260200190815260200160002060006101000a81548160ff021916908315150217905550604051806080016040528060015481526020018381526020018263ffffffff168152602001600060ff168152506003600060015481526020019081526020016000206000820151816000015560208201518160010190805190602001906104f992919061088a565b5060408201518160020160006101000a81548163ffffffff021916908363ffffffff16021790555060608201518160020160046101000a81548160ff021916908360ff1602179055509050505050565b60011515600260003373ffffffffffffffffffffffffffffffffffffffff1673ffffffffffffffffffffffffffffffffffffffff16815260200190815260200160002060009054906101000a900460ff161515146105dc576040517f08c379a00000000000000000000000000000000000000000000000000000000081526004016105d390610f2a565b60405180910390fd5b6000600260003373ffffffffffffffffffffffffffffffffffffffff1673ffffffffffffffffffffffffffffffffffffffff16815260200190815260200160002060006101000a81548160ff02191690831515021790555060016003600083815260200190815260200160002060020160048282829054906101000a900460ff166106679190610f93565b92506101000a81548160ff021916908360ff16021790555050565b60026020528060005260406000206000915054906101000a900460ff1681565b60008054906101000a900473ffffffffffffffffffffffffffffffffffffffff1681565b60008054906101000a900473ffffffffffffffffffffffffffffffffffffffff1673ffffffffffffffffffffffffffffffffffffffff163373ffffffffffffffffffffffffffffffffffffffff1614610754576040517f08c379a000000000000000000000000000000000000000000000000000000000815260040161074b90610e04565b60405180910390fd5b6001600260008373ffffffffffffffffffffffffffffffffffffffff1673ffffffffffffffffffffffffffffffffffffffff16815260200190815260200160002060006101000a81548160ff02191690831515021790555050565b60036020528060005260406000206000915090508060000154908060010180546107d890610eac565b80601f016020809104026020016040519081016040528092919081815260200182805461080490610eac565b80156108515780601f1061082657610100808354040283529160200191610851565b820191906000526020600020905b81548152906001019060200180831161083457829003601f168201915b5050505050908060020160009054906101000a900463ffffffff16908060020160049054906101000a900460ff16905084565b60015481565b82805461089690610eac565b90600052602060002090601f0160209004810192826108b857600085556108ff565b82601f106108d157805160ff19168380011785556108ff565b828001600101855582156108ff579182015b828111156108fe5782518255916020019190600101906108e3565b5b50905061090c9190610910565b5090565b5b80821115610929576000816000905550600101610911565b5090565b600081519050919050565b600082825260208201905092915050565b60005b8381101561096757808201518184015260208101905061094c565b83811115610976576000848401525b50505050565b6000601f19601f8301169050919050565b60006109988261092d565b6109a28185610938565b93506109b2818560208601610949565b6109bb8161097c565b840191505092915050565b600060208201905081810360008301526109e0818461098d565b905092915050565b6000604051905090565b600080fd5b600080fd5b600080fd5b600080fd5b7f4e487b7100000000000000000000000000000000000000000000000000000000600052604160045260246000fd5b610a3e8261097c565b810181811067ffffffffffffffff82111715610a5d57610a5c610a06565b5b80604052505050565b6000610a706109e8565b9050610a7c8282610a35565b919050565b600067ffffffffffffffff821115610a9c57610a9b610a06565b5b610aa58261097c565b9050602081019050919050565b82818337600083830152505050565b6000610ad4610acf84610a81565b610a66565b905082815260208101848484011115610af057610aef610a01565b5b610afb848285610ab2565b509392505050565b600082601f830112610b1857610b176109fc565b5b8135610b28848260208601610ac1565b91505092915050565b600063ffffffff82169050919050565b610b4a81610b31565b8114610b5557600080fd5b50565b600081359050610b6781610b41565b92915050565b60008060408385031215610b8457610b836109f2565b5b600083013567ffffffffffffffff811115610ba257610ba16109f7565b5b610bae85828601610b03565b9250506020610bbf85828601610b58565b9150509250929050565b6000819050919050565b610bdc81610bc9565b8114610be757600080fd5b50565b600081359050610bf981610bd3565b92915050565b600060208284031215610c1557610c146109f2565b5b6000610c2384828501610bea565b91505092915050565b600073ffffffffffffffffffffffffffffffffffffffff82169050919050565b6000610c5782610c2c565b9050919050565b610c6781610c4c565b8114610c7257600080fd5b50565b600081359050610c8481610c5e565b92915050565b600060208284031215610ca057610c9f6109f2565b5b6000610cae84828501610c75565b91505092915050565b60008115159050919050565b610ccc81610cb7565b82525050565b6000602082019050610ce76000830184610cc3565b92915050565b610cf681610c4c565b82525050565b6000602082019050610d116000830184610ced565b92915050565b610d2081610bc9565b82525050565b610d2f81610b31565b82525050565b600060ff82169050919050565b610d4b81610d35565b82525050565b6000608082019050610d666000830187610d17565b8181036020830152610d78818661098d565b9050610d876040830185610d26565b610d946060830184610d42565b95945050505050565b6000602082019050610db26000830184610d17565b92915050565b7f596f7520617265206e6f74206120546561636865720000000000000000000000600082015250565b6000610dee601583610938565b9150610df982610db8565b602082019050919050565b60006020820190508181036000830152610e1d81610de1565b9050919050565b7f4e487b7100000000000000000000000000000000000000000000000000000000600052601160045260246000fd5b6000610e5e82610d35565b915060ff821415610e7257610e71610e24565b5b600182019050919050565b7f4e487b7100000000000000000000000000000000000000000000000000000000600052602260045260246000fd5b60006002820490506001821680610ec457607f821691505b60208210811415610ed857610ed7610e7d565b5b50919050565b7f596f7520617265206e6f7420612053747564656e740000000000000000000000600082015250565b6000610f14601583610938565b9150610f1f82610ede565b602082019050919050565b60006020820190508181036000830152610f4381610f07565b9050919050565b6000610f5582610bc9565b91507fffffffffffffffffffffffffffffffffffffffffffffffffffffffffffffffff821415610f8857610f87610e24565b5b600182019050919050565b6000610f9e82610d35565b9150610fa983610d35565b92508260ff03821115610fbf57610fbe610e24565b5b82820190509291505056fea2646970667358221220c3d5fb78a89d2d822f36d9097b49b3e4682cd0e8e775ba9a57f927557529d87d64736f6c634300080a0033",
  "immutableReferences": {},
  "source": "// SPDX-License-Identifier: MIT\npragma solidity >=0.4.22 <0.9.0;\n\ncontract CRVoting {\n    address public teacher;\n    uint public studentsInElectionCount = 0;\n\n    struct StudentInElection {\n        uint id;\n        string name;\n        uint32 erp;\n        uint8 votes;\n    }\n\n    constructor() public {\n        teacher = msg.sender;\n    }\n\n    mapping (address => bool) public students;\n    mapping (uint => StudentInElection) public studentsInElectionMapping;\n\n    modifier onlyTeacher () {\n        require (msg.sender == teacher, \"You are not a Teacher\");\n        _;\n    }\n\n    modifier onlyStudent () {\n        require (students[msg.sender] == true, \"You are not a Student\");\n        _;\n    }\n\n    function registerStudent (address _studentAddress) public onlyTeacher {\n        students[_studentAddress] = true;\n    }\n\n    function applyForElection (string memory name, uint32 erp) public onlyStudent {\n        studentsInElectionCount++;\n        students[msg.sender] = false;\n        studentsInElectionMapping[studentsInElectionCount] = StudentInElection(studentsInElectionCount, name, erp, 0);\n    }\n\n    function giveVote (uint id) public onlyStudent {\n        students[msg.sender] = false;\n        studentsInElectionMapping[id].votes += 1;\n    }\n\n    function declareWinner () public view onlyTeacher returns (string memory) {\n        uint8 max = studentsInElectionMapping[1].votes;\n        uint8 student = 1;\n        for(uint8 i = 2; i <= studentsInElectionCount; i++) {\n            if (max < studentsInElectionMapping[i].votes) {\n                max = studentsInElectionMapping[i].votes;\n                student = i;\n            }\n        }\n        return studentsInElectionMapping[student].name;\n    }\n}\n",
  "sourcePath": "/Users/siddhantangore/Desktop/demo/CR-Voting/contracts/CRVoting.sol",
  "compiler": {
    "name": "solc",
    "version": "0.8.10+commit.fc410830.Emscripten.clang"
  },
  "schemaVersion": "3.4.3",
  "updatedAt": "2021-12-15T20:01:39.975Z",
  "networkType": "ethereum",
  "devdoc": {
    "kind": "dev",
    "methods": {},
    "version": 1
  },
  "userdoc": {
    "kind": "user",
    "methods": {},
    "version": 1
  }
}